{
  "contractName": "ECRecover",
  "abi": [
    {
      "constant": true,
      "inputs": [
        {
          "internalType": "bytes32",
          "name": "_hash",
          "type": "bytes32"
        },
        {
          "internalType": "bytes",
          "name": "_signature",
          "type": "bytes"
        }
      ],
      "name": "recoverSigner",
      "outputs": [
        {
          "internalType": "address",
          "name": "",
          "type": "address"
        }
      ],
      "payable": false,
      "stateMutability": "pure",
      "type": "function"
    }
  ],
  "bytecode": "0x608060405234801561001057600080fd5b506102c5806100206000396000f3fe608060405234801561001057600080fd5b506004361061002b5760003560e01c806397aba7f914610030575b600080fd5b6100f36004803603604081101561004657600080fd5b81019080803590602001909291908035906020019064010000000081111561006d57600080fd5b82018360208201111561007f57600080fd5b803590602001918460018302840111640100000000831117156100a157600080fd5b91908080601f016020809104026020016040519081016040528093929190818152602001838380828437600081840152601f19601f820116905080830192505050505050509192919290505050610135565b604051808273ffffffffffffffffffffffffffffffffffffffff1673ffffffffffffffffffffffffffffffffffffffff16815260200191505060405180910390f35b60008061014184610156565b905061014d81846101ae565b91505092915050565b60008160405160200180807f19457468657265756d205369676e6564204d6573736167653a0a333200000000815250601c01828152602001915050604051602081830303815290604052805190602001209050919050565b60008060008060418551146101c9576000935050505061028a565b6020850151925060408501519150606085015160001a9050601b8160ff1610156101f457601b810190505b601b8160ff161415801561020c5750601c8160ff1614155b1561021d576000935050505061028a565b60018682858560405160008152602001604052604051808581526020018460ff1660ff1681526020018381526020018281526020019450505050506020604051602081039080840390855afa15801561027a573d6000803e3d6000fd5b5050506020604051035193505050505b9291505056fea265627a7a723158201db1c4ddb31a359be1f1a18d6ace149c02b50aa43198293c85f86a6b4dc6b1f764736f6c63430005100032",
  "source": "  \r\npragma solidity >= 0.5.0;\r\nimport {ECDSA} from \"./ECDSA.sol\";\r\n\r\ncontract ECRecover {\r\n    mapping (address => uint) nonces;\r\n\r\n    function recoverSigner(bytes32 _hash, bytes memory _signature) public pure returns (address) {\r\n        bytes32 ethSignedMessageHash = ECDSA.toEthSignedMessageHash(_hash);\r\n        return ECDSA.recover(ethSignedMessageHash, _signature);\r\n    }\r\n\r\n    function validateNonceForSigner(address _signer, uint _nonce) internal {\r\n        require(_nonce == nonces[_signer], \"Invalid nonce\");\r\n        nonces[_signer]++;\r\n    }\r\n\r\n}",
  "sourcePath": "C:/Users/arimc/OneDrive/เดสก์ท็อป/Project/MetaTransaction-simulator/BackEnd-MetaTransaction/truffle/contracts/ECRecover.sol",
  "compiler": {
    "name": "solc",
    "version": "0.5.16+commit.9c3226ce.Emscripten.clang"
  },
  "schemaVersion": "3.4.1",
  "updatedAt": "2021-05-31T04:44:35.332Z",
  "networkType": "ethereum",
  "devdoc": {
    "methods": {}
  },
  "userdoc": {
    "methods": {}
  }
}