{
  "contractName": "MetaDApp",
  "abi": [
    {
      "inputs": [],
      "payable": false,
      "stateMutability": "nonpayable",
      "type": "constructor"
    },
    {
      "constant": true,
      "inputs": [
        {
          "internalType": "address",
          "name": "",
          "type": "address"
        }
      ],
      "name": "balances",
      "outputs": [
        {
          "internalType": "uint256",
          "name": "",
          "type": "uint256"
        }
      ],
      "payable": false,
      "stateMutability": "view",
      "type": "function"
    },
    {
      "constant": true,
      "inputs": [
        {
          "internalType": "address",
          "name": "",
          "type": "address"
        }
      ],
      "name": "nonces",
      "outputs": [
        {
          "internalType": "uint256",
          "name": "",
          "type": "uint256"
        }
      ],
      "payable": false,
      "stateMutability": "view",
      "type": "function"
    },
    {
      "constant": true,
      "inputs": [
        {
          "internalType": "bytes32",
          "name": "_hash",
          "type": "bytes32"
        },
        {
          "internalType": "bytes",
          "name": "_signature",
          "type": "bytes"
        }
      ],
      "name": "recoverSigner",
      "outputs": [
        {
          "internalType": "address",
          "name": "",
          "type": "address"
        }
      ],
      "payable": false,
      "stateMutability": "pure",
      "type": "function"
    },
    {
      "constant": true,
      "inputs": [
        {
          "internalType": "address",
          "name": "_account",
          "type": "address"
        }
      ],
      "name": "getUserTransfer",
      "outputs": [
        {
          "internalType": "address[]",
          "name": "",
          "type": "address[]"
        }
      ],
      "payable": false,
      "stateMutability": "view",
      "type": "function"
    },
    {
      "constant": false,
      "inputs": [
        {
          "internalType": "address",
          "name": "_from",
          "type": "address"
        },
        {
          "internalType": "address",
          "name": "_to",
          "type": "address"
        },
        {
          "internalType": "uint256",
          "name": "_amount",
          "type": "uint256"
        }
      ],
      "name": "transfer",
      "outputs": [],
      "payable": false,
      "stateMutability": "nonpayable",
      "type": "function"
    },
    {
      "constant": false,
      "inputs": [
        {
          "internalType": "bytes",
          "name": "_signature",
          "type": "bytes"
        },
        {
          "internalType": "address",
          "name": "_to",
          "type": "address"
        },
        {
          "internalType": "uint256",
          "name": "_amount",
          "type": "uint256"
        },
        {
          "internalType": "uint256",
          "name": "_nonce",
          "type": "uint256"
        }
      ],
      "name": "metaTransfer",
      "outputs": [],
      "payable": false,
      "stateMutability": "nonpayable",
      "type": "function"
    },
    {
      "constant": true,
      "inputs": [
        {
          "internalType": "address",
          "name": "_to",
          "type": "address"
        },
        {
          "internalType": "uint256",
          "name": "_amount",
          "type": "uint256"
        },
        {
          "internalType": "uint256",
          "name": "_nonce",
          "type": "uint256"
        }
      ],
      "name": "hashMessage",
      "outputs": [
        {
          "internalType": "bytes32",
          "name": "_messageHash",
          "type": "bytes32"
        }
      ],
      "payable": false,
      "stateMutability": "pure",
      "type": "function"
    }
  ],
  "bytecode": "0x608060405234801561001057600080fd5b506305f5e100600160003373ffffffffffffffffffffffffffffffffffffffff1673ffffffffffffffffffffffffffffffffffffffff16815260200190815260200160002081905550610b5f806100686000396000f3fe608060405234801561001057600080fd5b506004361061007d5760003560e01c80637aa7022e1161005b5780637aa7022e146101df5780637ecebe001461028c57806397aba7f9146102e4578063beabacc8146103e95761007d565b806327e235e31461008257806338cabe0a146100da5780636ced4f6914610146575b600080fd5b6100c46004803603602081101561009857600080fd5b81019080803573ffffffffffffffffffffffffffffffffffffffff169060200190929190505050610457565b6040518082815260200191505060405180910390f35b610130600480360360608110156100f057600080fd5b81019080803573ffffffffffffffffffffffffffffffffffffffff169060200190929190803590602001909291908035906020019092919050505061046f565b6040518082815260200191505060405180910390f35b6101886004803603602081101561015c57600080fd5b81019080803573ffffffffffffffffffffffffffffffffffffffff1690602001909291905050506104e0565b6040518080602001828103825283818151815260200191508051906020019060200280838360005b838110156101cb5780820151818401526020810190506101b0565b505050509050019250505060405180910390f35b61028a600480360360808110156101f557600080fd5b810190808035906020019064010000000081111561021257600080fd5b82018360208201111561022457600080fd5b8035906020019184600183028401116401000000008311171561024657600080fd5b9091929391929390803573ffffffffffffffffffffffffffffffffffffffff16906020019092919080359060200190929190803590602001909291905050506105ad565b005b6102ce600480360360208110156102a257600080fd5b81019080803573ffffffffffffffffffffffffffffffffffffffff169060200190929190505050610813565b6040518082815260200191505060405180910390f35b6103a7600480360360408110156102fa57600080fd5b81019080803590602001909291908035906020019064010000000081111561032157600080fd5b82018360208201111561033357600080fd5b8035906020019184600183028401116401000000008311171561035557600080fd5b91908080601f016020809104026020016040519081016040528093929190818152602001838380828437600081840152601f19601f82011690508083019250505050505050919291929050505061082b565b604051808273ffffffffffffffffffffffffffffffffffffffff1673ffffffffffffffffffffffffffffffffffffffff16815260200191505060405180910390f35b610455600480360360608110156103ff57600080fd5b81019080803573ffffffffffffffffffffffffffffffffffffffff169060200190929190803573ffffffffffffffffffffffffffffffffffffffff1690602001909291908035906020019092919050505061084c565b005b60016020528060005260406000206000915090505481565b6000838383604051602001808473ffffffffffffffffffffffffffffffffffffffff1673ffffffffffffffffffffffffffffffffffffffff1660601b815260140183815260200182815260200193505050506040516020818303038152906040528051906020012090509392505050565b6060600260008373ffffffffffffffffffffffffffffffffffffffff1673ffffffffffffffffffffffffffffffffffffffff1681526020019081526020016000208054806020026020016040519081016040528092919081815260200182805480156105a157602002820191906000526020600020905b8160009054906101000a900473ffffffffffffffffffffffffffffffffffffffff1673ffffffffffffffffffffffffffffffffffffffff1681526020019060010190808311610557575b50505050509050919050565b60006105ba84848461046f565b9050600061060c8288888080601f016020809104026020016040519081016040528093929190818152602001838380828437600081840152601f19601f8201169050808301925050505050505061082b565b9050600260008673ffffffffffffffffffffffffffffffffffffffff1673ffffffffffffffffffffffffffffffffffffffff1681526020019081526020016000208190806001815401808255809150509060018203906000526020600020016000909192909190916101000a81548173ffffffffffffffffffffffffffffffffffffffff021916908373ffffffffffffffffffffffffffffffffffffffff160217905550506106bb81846108eb565b83600160008373ffffffffffffffffffffffffffffffffffffffff1673ffffffffffffffffffffffffffffffffffffffff168152602001908152602001600020541015610770576040517f08c379a000000000000000000000000000000000000000000000000000000000815260040180806020018281038252601e8152602001807f5369676e65722068617320696e73756666696369656e742066756e64732e000081525060200191505060405180910390fd5b83600160008373ffffffffffffffffffffffffffffffffffffffff1673ffffffffffffffffffffffffffffffffffffffff1681526020019081526020016000206000828254039250508190555083600160008773ffffffffffffffffffffffffffffffffffffffff1673ffffffffffffffffffffffffffffffffffffffff1681526020019081526020016000206000828254019250508190555050505050505050565b60006020528060005260406000206000915090505481565b600080610837846109f0565b90506108438184610a48565b91505092915050565b80600160008473ffffffffffffffffffffffffffffffffffffffff1673ffffffffffffffffffffffffffffffffffffffff1681526020019081526020016000206000828254019250508190555080600160008573ffffffffffffffffffffffffffffffffffffffff1673ffffffffffffffffffffffffffffffffffffffff16815260200190815260200160002060008282540392505081905550505050565b6000808373ffffffffffffffffffffffffffffffffffffffff1673ffffffffffffffffffffffffffffffffffffffff16815260200190815260200160002054811461099e576040517f08c379a000000000000000000000000000000000000000000000000000000000815260040180806020018281038252600d8152602001807f496e76616c6964206e6f6e63650000000000000000000000000000000000000081525060200191505060405180910390fd5b6000808373ffffffffffffffffffffffffffffffffffffffff1673ffffffffffffffffffffffffffffffffffffffff168152602001908152602001600020600081548092919060010191905055505050565b60008160405160200180807f19457468657265756d205369676e6564204d6573736167653a0a333200000000815250601c01828152602001915050604051602081830303815290604052805190602001209050919050565b6000806000806041855114610a635760009350505050610b24565b6020850151925060408501519150606085015160001a9050601b8160ff161015610a8e57601b810190505b601b8160ff1614158015610aa65750601c8160ff1614155b15610ab75760009350505050610b24565b60018682858560405160008152602001604052604051808581526020018460ff1660ff1681526020018381526020018281526020019450505050506020604051602081039080840390855afa158015610b14573d6000803e3d6000fd5b5050506020604051035193505050505b9291505056fea265627a7a723158201ce374bbcc8c5738f1669cd63a89c3c6633b263883d79cf30a90a62778ea65a564736f6c63430005100032",
  "source": "pragma solidity >= 0.5.0;\r\ncontract MetaDApp{\r\n    mapping (address => uint) public nonces;\r\n    mapping (address => uint) public balances;\r\n    mapping(address => address[]) private userTransfer;\r\n    \r\n    constructor() public{\r\n        balances[msg.sender] = 100000000;\r\n    }\r\n    \r\n    function recover(bytes32 hash, bytes memory signature) internal pure returns (address) {\r\n        bytes32 r;\r\n        bytes32 s;\r\n        uint8 v;\r\n        if (signature.length != 65) {\r\n            return (address(0));\r\n        }\r\n        assembly {\r\n            r := mload(add(signature, 0x20))\r\n            s := mload(add(signature, 0x40))\r\n            v := byte(0, mload(add(signature, 0x60)))\r\n        }\r\n        if (v < 27) {\r\n            v += 27;\r\n        }\r\n        if (v != 27 && v != 28) {\r\n            return (address(0));\r\n        } else {\r\n            return ecrecover(hash, v, r, s);\r\n        }\r\n    }\r\n    function toEthSignedMessageHash(bytes32 hash) internal pure returns (bytes32) {\r\n        return keccak256(abi.encodePacked(\"\\x19Ethereum Signed Message:\\n32\", hash));\r\n    }\r\n\r\n    function recoverSigner(bytes32 _hash, bytes memory _signature) public pure returns (address) {\r\n        bytes32 ethSignedMessageHash = toEthSignedMessageHash(_hash);\r\n        return recover(ethSignedMessageHash, _signature);        \r\n    }\r\n    function getUserTransfer(address _account) public view returns(address[] memory){\r\n        return userTransfer[_account];\r\n    }\r\n\r\n    function validateNonceForSigner(address _signer, uint _nonce) internal {\r\n        require(_nonce == nonces[_signer], \"Invalid nonce\");\r\n        nonces[_signer]++;\r\n    }\r\n\r\n    function transfer(address _from, address _to, uint _amount) public{ \r\n        balances[_to] += _amount;\r\n        balances[_from] -= _amount;\r\n    }\r\n    function metaTransfer(bytes calldata _signature, address _to, uint _amount, uint _nonce) external {\r\n        bytes32 messageHash = hashMessage(_to, _amount, _nonce);       \r\n        address signer = recoverSigner(messageHash, _signature);       \r\n        userTransfer[_to].push(signer);\r\n        validateNonceForSigner(signer, _nonce);\r\n        require(balances[signer] >= _amount, \"Signer has insufficient funds.\");\r\n        balances[signer] -= _amount;\r\n        balances[_to] += _amount;\r\n    }\r\n\r\n    function hashMessage(address _to, uint _amount, uint _nonce)       \r\n        public\r\n        pure\r\n        returns (bytes32 _messageHash)\r\n    {\r\n        _messageHash = keccak256(abi.encodePacked(_to, _amount, _nonce));\r\n    }\r\n}",
  "sourcePath": "C:/Users/arimc/OneDrive/เดสก์ท็อป/Project/MetaTransaction-simulator/BackEnd-MetaTransaction/truffle/contracts/MetaTransfer.sol",
  "compiler": {
    "name": "solc",
    "version": "0.5.16+commit.9c3226ce.Emscripten.clang"
  },
  "schemaVersion": "3.4.1",
  "updatedAt": "2021-05-31T07:36:02.394Z",
  "devdoc": {
    "methods": {}
  },
  "userdoc": {
    "methods": {}
  }
}